:1000000001308A00D4290000FF00030E8301A500FF
:100010007F08A4000A08AF008A01A40E0408A60005
:100020002008A7002108A8002208A9002308AA0088
:1000300003170D080313AB0003170F080313AC00DD
:1000400003170C080313AD0003170E080313AE00CB
:10005000831383128B1D2E280B184F28260884002B
:100060002708A0002808A1002908A2002A08A30048
:100070002B0803178D0003132C0803178F0003139D
:100080002D0803178C0003132E0803178E0003138B
:100090002F088A00250E8300FF0E7F0E09008A11AB
:1000A00051280317161203130B138B138B1B5528A0
:1000B0000B108A112E28413AF4326E3A6510F3344F
:1000C000673761362022D42646108A060000CC32DB
:1000D000633A75396510E337E4322022D4264605A9
:1000E0000D00C337E4322032F4366610F232E33AC0
:1000F0003A10A53A20050D00F232E2376F3A20059A
:100100000D00F232F3327410E8307232A010A110F8
:100110008A060001D422532A20050D000B08B500E1
:100120008B13831603178C170C1400000000831226
:100130000313B51B8B1703170C087F390319E42829
:100140000313B50003170D080313B60003170F08B8
:100150000313B70035080C1EAB28990036080317A7
:100160008D000313370803178F0003130B08B80023
:100170008B13831603178C170C14000000008312D6
:100180000313B81B8B1703170C0D0E0D7F390319C2
:10019000E4280313B50003170D080313B600031773
:1001A0000F080313B70035080C1ED4289900360831
:1001B00003178D000313370803178F008D0A0319E7
:1001C0008F0A03138E2803170313080036308400A8
:1001D000831300080319F9280230A100A001A00B25
:1001E000EF28A10BEE289730A000A00BF528800B7C
:1001F000EC2808008316071600308312071A013016
:10020000B6008316871600308312871A0130A000CB
:100210000310A00D2008B6078316071700308312BD
:10022000071B0130A000A00DA00DFC30A005200888
:10023000B6078316871700308312871B0130A00092
:10024000A00DA00DA00DF830A00520083607B500C0
:100250003508A1008A111F2A0B08B6008B138316DC
:1002600003178C170C140000000083120313B61B35
:100270008B170318642903170C087F390313B60082
:1002800003170D080313B70003170F080313B80073
:1002900036080C1E49299900370803178D000313EF
:1002A000380803178F0003130B08B9008B1383164C
:1002B00003178C170C140000000083120313B91BE2
:1002C0008B17B50B6429842903170C0D0E0D7F398C
:1002D0000313B60003170D080313B70003170F0825
:1002E0000313B80036080C1E73299900370803174A
:1002F0008D000313380803178F008D0A03198F0A26
:1003000003100313B50B2C298A112B2A3808A101DD
:10031000370203188E293708A0009A29A001083057
:10032000B900B70DA00D380820020318A000A10DD8
:10033000B90B9129080021083508B7006430B800CE
:1003400086212008B50021083030031DAE29B61CD7
:10035000B629B619B629361A2030B129B611361287
:100360003614A10721080C1EB32999003508B700DF
:100370000A30B80086212008B50021083030031D5E
:10038000C729B619CC29361CCC29361A2030A1072A
:1003900021080C1EC92999003030B50735080C1EFC
:1003A000CF2999008A11302A03081F398300713040
:1003B00083168F0090010F088312B00183169B11E2
:1003C0000C309900A2309800903083129800B4014C
:1003D000B30103171F109F101F119F1103131F1349
:1003E000003003179E0099019A0183169E01831223
:1003F0009B0103138D1283138316071083120710BA
:10040000831687108312871032105B3003178D001C
:1004100000308F0003138E201430B600E6208316C0
:1004200006168312061E0F2A673003178D00003050
:100430008F0003138E201430B600E620FA2821081E
:10044000B100713003178D0000308F0003101030A1
:100450000313B5002C293108B5001B30B6009B29C9
:1004600020300C1E312A99000A300C1E352A9900C2
:100470000D300C1E392A99003108053C031D562AFF
:1004800083160710831207147C3003178D00003089
:100490008F0003138E200430B500FA30B600E6203A
:1004A000B50B4D2A831607108312071031080A3C3A
:1004B000031D702A83168710831287148130031757
:1004C0008D0000308F0003138E200430B500FA3009
:1004D000B600E620B50B672A8316871083128710B3
:1004E000310B882A83160711831207158A300317E8
:1004F0008D0000308F0003138E200430B500FA30D9
:10050000B600E620B50B7F2A831607118312071168
:100510000430B500FA30B600E620B50B8A2A052A69
:02052000630076
:02400E00E43F8D
:00000001FF
;PIC16F690
;CRC=EE6E  CREATED="07-avr.-19 17:10"
